:1000000002003602000000000000000200000000B4
:1000100000000002000000000000000200000000DC
:0E0020000000000200000000000000020000CE
:08002E00E493F608A3D9F922BE
:10003600758180750800750900750A00750B0075D5
:10004600800075A0007409650A70047400650B7061
:1000560020740965087004740065096014750A0047
:10006600750B0074012508F50874003509F509803B
:100076003274096508700474006509701A7409659C
:100086000A70047400650B700E750A00750B007516
:100096000800750900800C7401250AF50A740035FC
:1000A6000BF50B751000751100C3E5109432740042
:1000B6006480F8E51164809840024139750E007538
:1000C6000F00D3E50E940174006480F8E50F648098
:1000D600984002412B800A75800180177580028046
:1000E60012E50E450F60F07401650E70047400652C
:1000F6000F60E97A01A90FE50E0A8005C333C933FB
:10010600C9DAF9F8740828F8860C08860D2197755F
:10011600A0C07E027FCADFFEDEFC411D75A0F97E0F
:10012600027FCADFFEDEFC411D75A0A47E027FCAE7
:10013600DFFEDEFC411D75A0B07E027FCADFFEDE5B
:10014600FC411D75A0997E027FCADFFEDEFC411DC3
:1001560075A0927E027FCADFFEDEFC411D75A0827D
:100166007E027FCADFFEDEFC411D75A0F87E027F9F
:10017600CADFFEDEFC411D75A0807E027FCADFFE5F
:10018600DEFC411D75A0987E027FCADFFEDEFC41C3
:100196001DE50C450D700221157401650C70047483
:1001A60000650D700221227402650C7004740065EE
:1001B6000D7002212F7403650C70047400650D70B8
:1001C60002213C7404650C70047400650D700221F4
:1001D600497405650C70047400650D70022156742F
:1001E60006650C70047400650D7002216374076562
:1001F6000C70047400650D700221707408650C7033
:10020600047400650D7002217D7409650C70047418
:1002160000650D7002218A7401250EF50E740035F5
:100226000FF50F01C874012510F51074003511F58E
:070236001101AF014B80FE36
:00000001FF
